{"abi":[{"type":"constructor","inputs":[{"name":"_verifier","type":"address","internalType":"address"},{"name":"_requiredCommitSha","type":"bytes20","internalType":"bytes20"}],"stateMutability":"nonpayable"},{"type":"function","name":"approve","inputs":[{"name":"to","type":"address","internalType":"address"},{"name":"tokenId","type":"uint256","internalType":"uint256"}],"outputs":[],"stateMutability":"nonpayable"},{"type":"function","name":"balanceOf","inputs":[{"name":"","type":"address","internalType":"address"}],"outputs":[{"name":"","type":"uint256","internalType":"uint256"}],"stateMutability":"view"},{"type":"function","name":"claim","inputs":[{"name":"proof","type":"bytes","internalType":"bytes"},{"name":"publicInputs","type":"bytes32[]","internalType":"bytes32[]"},{"name":"certificate","type":"bytes","internalType":"bytes"},{"name":"paperId","type":"uint256","internalType":"uint256"},{"name":"email","type":"string","internalType":"string"},{"name":"recipient","type":"address","internalType":"address"}],"outputs":[],"stateMutability":"nonpayable"},{"type":"function","name":"claimed","inputs":[{"name":"","type":"bytes32","internalType":"bytes32"}],"outputs":[{"name":"","type":"bool","internalType":"bool"}],"stateMutability":"view"},{"type":"function","name":"getApproved","inputs":[{"name":"","type":"uint256","internalType":"uint256"}],"outputs":[{"name":"","type":"address","internalType":"address"}],"stateMutability":"view"},{"type":"function","name":"isApprovedForAll","inputs":[{"name":"","type":"address","internalType":"address"},{"name":"","type":"address","internalType":"address"}],"outputs":[{"name":"","type":"bool","internalType":"bool"}],"stateMutability":"view"},{"type":"function","name":"name","inputs":[],"outputs":[{"name":"","type":"string","internalType":"string"}],"stateMutability":"view"},{"type":"function","name":"owner","inputs":[],"outputs":[{"name":"","type":"address","internalType":"address"}],"stateMutability":"view"},{"type":"function","name":"ownerOf","inputs":[{"name":"","type":"uint256","internalType":"uint256"}],"outputs":[{"name":"","type":"address","internalType":"address"}],"stateMutability":"view"},{"type":"function","name":"paperMetadataURI","inputs":[{"name":"","type":"uint256","internalType":"uint256"}],"outputs":[{"name":"","type":"string","internalType":"string"}],"stateMutability":"view"},{"type":"function","name":"registerPaper","inputs":[{"name":"paperId","type":"uint256","internalType":"uint256"},{"name":"emails","type":"string[]","internalType":"string[]"},{"name":"metadataURI","type":"string","internalType":"string"}],"outputs":[],"stateMutability":"nonpayable"},{"type":"function","name":"registerPapers","inputs":[{"name":"paperIds","type":"uint256[]","internalType":"uint256[]"},{"name":"emailsPerPaper","type":"string[][]","internalType":"string[][]"},{"name":"metadataURIs","type":"string[]","internalType":"string[]"}],"outputs":[],"stateMutability":"nonpayable"},{"type":"function","name":"requiredCommitSha","inputs":[],"outputs":[{"name":"","type":"bytes20","internalType":"bytes20"}],"stateMutability":"view"},{"type":"function","name":"safeTransferFrom","inputs":[{"name":"from","type":"address","internalType":"address"},{"name":"to","type":"address","internalType":"address"},{"name":"tokenId","type":"uint256","internalType":"uint256"}],"outputs":[],"stateMutability":"nonpayable"},{"type":"function","name":"safeTransferFrom","inputs":[{"name":"from","type":"address","internalType":"address"},{"name":"to","type":"address","internalType":"address"},{"name":"tokenId","type":"uint256","internalType":"uint256"},{"name":"","type":"bytes","internalType":"bytes"}],"outputs":[],"stateMutability":"nonpayable"},{"type":"function","name":"setApprovalForAll","inputs":[{"name":"operator","type":"address","internalType":"address"},{"name":"approved","type":"bool","internalType":"bool"}],"outputs":[],"stateMutability":"nonpayable"},{"type":"function","name":"setRequirements","inputs":[{"name":"_commitSha","type":"bytes20","internalType":"bytes20"}],"outputs":[],"stateMutability":"nonpayable"},{"type":"function","name":"setTokenMetadataURI","inputs":[{"name":"tokenId","type":"uint256","internalType":"uint256"},{"name":"uri","type":"string","internalType":"string"}],"outputs":[],"stateMutability":"nonpayable"},{"type":"function","name":"supportsInterface","inputs":[{"name":"interfaceId","type":"bytes4","internalType":"bytes4"}],"outputs":[{"name":"","type":"bool","internalType":"bool"}],"stateMutability":"pure"},{"type":"function","name":"symbol","inputs":[],"outputs":[{"name":"","type":"string","internalType":"string"}],"stateMutability":"view"},{"type":"function","name":"tokenEmail","inputs":[{"name":"","type":"uint256","internalType":"uint256"}],"outputs":[{"name":"","type":"string","internalType":"string"}],"stateMutability":"view"},{"type":"function","name":"tokenMetadataURI","inputs":[{"name":"","type":"uint256","internalType":"uint256"}],"outputs":[{"name":"","type":"string","internalType":"string"}],"stateMutability":"view"},{"type":"function","name":"tokenPaperId","inputs":[{"name":"","type":"uint256","internalType":"uint256"}],"outputs":[{"name":"","type":"uint256","internalType":"uint256"}],"stateMutability":"view"},{"type":"function","name":"tokenURI","inputs":[{"name":"tokenId","type":"uint256","internalType":"uint256"}],"outputs":[{"name":"","type":"string","internalType":"string"}],"stateMutability":"view"},{"type":"function","name":"totalSupply","inputs":[],"outputs":[{"name":"","type":"uint256","internalType":"uint256"}],"stateMutability":"view"},{"type":"function","name":"transferFrom","inputs":[{"name":"from","type":"address","internalType":"address"},{"name":"to","type":"address","internalType":"address"},{"name":"tokenId","type":"uint256","internalType":"uint256"}],"outputs":[],"stateMutability":"nonpayable"},{"type":"function","name":"verifier","inputs":[],"outputs":[{"name":"","type":"address","internalType":"contract ISigstoreVerifier"}],"stateMutability":"view"},{"type":"event","name":"Approval","inputs":[{"name":"owner","type":"address","indexed":true,"internalType":"address"},{"name":"approved","type":"address","indexed":true,"internalType":"address"},{"name":"tokenId","type":"uint256","indexed":true,"internalType":"uint256"}],"anonymous":false},{"type":"event","name":"ApprovalForAll","inputs":[{"name":"owner","type":"address","indexed":true,"internalType":"address"},{"name":"operator","type":"address","indexed":true,"internalType":"address"},{"name":"approved","type":"bool","indexed":false,"internalType":"bool"}],"anonymous":false},{"type":"event","name":"Claimed","inputs":[{"name":"recipient","type":"address","indexed":true,"internalType":"address"},{"name":"paperId","type":"uint256","indexed":false,"internalType":"uint256"},{"name":"email","type":"string","indexed":false,"internalType":"string"},{"name":"tokenId","type":"uint256","indexed":false,"internalType":"uint256"}],"anonymous":false},{"type":"event","name":"PaperRegistered","inputs":[{"name":"paperId","type":"uint256","indexed":false,"internalType":"uint256"},{"name":"numAuthors","type":"uint256","indexed":false,"internalType":"uint256"}],"anonymous":false},{"type":"event","name":"Transfer","inputs":[{"name":"from","type":"address","indexed":true,"internalType":"address"},{"name":"to","type":"address","indexed":true,"internalType":"address"},{"name":"tokenId","type":"uint256","indexed":true,"internalType":"uint256"}],"anonymous":false},{"type":"error","name":"AlreadyClaimed","inputs":[]},{"type":"error","name":"CertificateMismatch","inputs":[]},{"type":"error","name":"EmailMismatch","inputs":[]},{"type":"error","name":"InvalidProof","inputs":[]},{"type":"error","name":"InvalidRecipient","inputs":[]},{"type":"error","name":"NotAuthorized","inputs":[]},{"type":"error","name":"NotAuthorizedEmail","inputs":[]},{"type":"error","name":"NotOwner","inputs":[]},{"type":"error","name":"PaperIdMismatch","inputs":[]},{"type":"error","name":"RecipientMismatch","inputs":[]},{"type":"error","name":"WrongCommit","inputs":[]}],"bytecode":{"object":"0x610100604052600a60c0908152692321991b102830b832b960b11b60e0525f906100299082610147565b506040805180820190915260048152632321991b60e11b60208201526001906100529082610147565b5034801561005e575f5ffd5b5060405161255838038061255883398101604081905261007d91610201565b6001600160a01b03919091166080523360a052600d80546001600160a01b03191660609290921c919091179055610250565b634e487b7160e01b5f52604160045260245ffd5b600181811c908216806100d757607f821691505b6020821081036100f557634e487b7160e01b5f52602260045260245ffd5b50919050565b601f82111561014257805f5260205f20601f840160051c810160208510156101205750805b601f840160051c820191505b8181101561013f575f815560010161012c565b50505b505050565b81516001600160401b03811115610160576101606100af565b6101748161016e84546100c3565b846100fb565b6020601f8211600181146101a6575f831561018f5750848201515b5f19600385901b1c1916600184901b17845561013f565b5f84815260208120601f198516915b828110156101d557878501518255602094850194600190920191016101b5565b50848210156101f257868401515f19600387901b60f8161c191681555b50505050600190811b01905550565b5f5f60408385031215610212575f5ffd5b82516001600160a01b0381168114610228575f5ffd5b60208401519092506001600160601b031981168114610245575f5ffd5b809150509250929050565b60805160a0516122c46102945f395f818161036c015281816104b7015281816108370152818161089e0152610a1c01525f818161029f0152610cc801526122c45ff3fe608060405234801561000f575f5ffd5b50600436106101a1575f3560e01c80634609e7c7116100f3578063a9058db811610093578063bfd646321161006e578063bfd64632146103f5578063c87b56dd14610414578063cc3c0f0614610427578063e985e9c514610449575f5ffd5b8063a9058db8146103a9578063b88d4fde146103bc578063ba558e54146103cf575f5ffd5b806370a08231116100ce57806370a08231146103485780638da5cb5b1461036757806395d89b411461038e578063a22cb46514610396575f5ffd5b80634609e7c7146102fa578063570b01ef1461030d5780636352211e14610320575f5ffd5b8063157c3df91161015e5780632b7ac3f3116101395780632b7ac3f31461029a5780632c46e691146102c15780634006f5de146102d457806342842e0e146102e7575f5ffd5b8063157c3df91461025d57806318160ddd1461027057806323b872dd14610287575f5ffd5b806301ffc9a7146101a55780630408d76a146101cd57806306fdde03146101e2578063081812fc146101f7578063095ea7b314610237578063127642141461024a575b5f5ffd5b6101b86101b33660046118b3565b610476565b60405190151581526020015b60405180910390f35b6101e06101db3660046118ef565b6104ac565b005b6101ea610511565b6040516101c4919061190a565b61021f61020536600461193f565b60046020525f90815260409020546001600160a01b031681565b6040516001600160a01b0390911681526020016101c4565b6101e0610245366004611971565b61059c565b6101ea61025836600461193f565b61065f565b6101ea61026b36600461193f565b610677565b61027960065481565b6040519081526020016101c4565b6101e0610295366004611999565b61068f565b61021f7f000000000000000000000000000000000000000000000000000000000000000081565b6101e06102cf366004611a17565b61082c565b6101e06102e2366004611a9e565b610893565b6101e06102f5366004611999565b6109e9565b6101ea61030836600461193f565b6109f9565b6101e061031b366004611b15565b610a11565b61021f61032e36600461193f565b60026020525f90815260409020546001600160a01b031681565b610279610356366004611bb1565b60036020525f908152604090205481565b61021f7f000000000000000000000000000000000000000000000000000000000000000081565b6101ea610c37565b6101e06103a4366004611bca565b610c44565b6101e06103b7366004611c03565b610caf565b6101e06103ca366004611ce6565b61105a565b600d546103dc9060601b81565b6040516001600160601b031990911681526020016101c4565b61027961040336600461193f565b600a6020525f908152604090205481565b6101ea61042236600461193f565b61106c565b6101b861043536600461193f565b60096020525f908152604090205460ff1681565b6101b8610457366004611d32565b600560209081525f928352604080842090915290825290205460ff1681565b5f6380ac58cd60e01b6001600160e01b0319831614806104a657506301ffc9a760e01b6001600160e01b03198316145b92915050565b336001600160a01b037f000000000000000000000000000000000000000000000000000000000000000016146104f5576040516330cd747160e01b815260040160405180910390fd5b600d80546001600160a01b03191660609290921c919091179055565b5f805461051d90611d63565b80601f016020809104026020016040519081016040528092919081815260200182805461054990611d63565b80156105945780601f1061056b57610100808354040283529160200191610594565b820191905f5260205f20905b81548152906001019060200180831161057757829003601f168201915b505050505081565b5f818152600260205260409020546001600160a01b03163381148015906105e657506001600160a01b0381165f90815260056020908152604080832033845290915290205460ff16155b156106045760405163ea8e4eb560e01b815260040160405180910390fd5b5f8281526004602052604080822080546001600160a01b0319166001600160a01b0387811691821790925591518593918516917f8c5be1e5ebec7d5bd14f71427d1e84f3dd0314c0f7b2291e5b200ac8c7c3b92591a4505050565b60086020525f90815260409020805461051d90611d63565b600c6020525f90815260409020805461051d90611d63565b6001600160a01b0382166106b657604051634e46966960e11b815260040160405180910390fd5b5f818152600260205260409020546001600160a01b0390811690841681146106f15760405163ea8e4eb560e01b815260040160405180910390fd5b336001600160a01b0385161480159061072057505f828152600460205260409020546001600160a01b03163314155b801561074f57506001600160a01b0384165f90815260056020908152604080832033845290915290205460ff16155b1561076d5760405163ea8e4eb560e01b815260040160405180910390fd5b6001600160a01b0384165f90815260036020526040812080549161079083611daf565b90915550506001600160a01b0383165f9081526003602052604081208054916107b883611dc4565b90915550505f82815260026020908152604080832080546001600160a01b038089166001600160a01b031992831681179093556004909452828520805490911690559051859391928816917fddf252ad1be2c89b69c2b068fc378daa952ba7f163c4a11628f55a4df523b3ef91a450505050565b336001600160a01b037f00000000000000000000000000000000000000000000000000000000000000001614610875576040516330cd747160e01b815260040160405180910390fd5b5f838152600c6020526040902061088d828483611e34565b50505050565b336001600160a01b037f000000000000000000000000000000000000000000000000000000000000000016146108dc576040516330cd747160e01b815260040160405180910390fd5b5f8581526007602052604081206108f29161187d565b5f5b8381101561098f575f86815260076020526040902061096986868481811061091e5761091e611eed565b90506020028101906109309190611f01565b8080601f0160208091040260200160405190810160405280939291908181526020018383808284375f9201919091525061128a92505050565b80516020918201208254600181810185555f9485529290932090920191909155016108f4565b505f8581526008602052604090206109a8828483611e34565b5060408051868152602081018590527f48e0bb70864b79c1152ba6d1e2e4cdc3f61ea287378b8e0c21b96c44f969fa6b910160405180910390a15050505050565b6109f483838361068f565b505050565b600b6020525f90815260409020805461051d90611d63565b336001600160a01b037f00000000000000000000000000000000000000000000000000000000000000001614610a5a576040516330cd747160e01b815260040160405180910390fd5b5f5b85811015610c2e5760075f888884818110610a7957610a79611eed565b9050602002013581526020019081526020015f205f610a98919061187d565b5f5b858583818110610aac57610aac611eed565b9050602002810190610abe9190611f43565b9050811015610b4d5760075f898985818110610adc57610adc611eed565b9050602002013581526020019081526020015f20610b27878785818110610b0557610b05611eed565b9050602002810190610b179190611f43565b8481811061091e5761091e611eed565b80516020918201208254600181810185555f948552929093209092019190915501610a9a565b50828282818110610b6057610b60611eed565b9050602002810190610b729190611f01565b60085f8a8a86818110610b8757610b87611eed565b9050602002013581526020019081526020015f209182610ba8929190611e34565b507f48e0bb70864b79c1152ba6d1e2e4cdc3f61ea287378b8e0c21b96c44f969fa6b878783818110610bdc57610bdc611eed565b90506020020135868684818110610bf557610bf5611eed565b9050602002810190610c079190611f43565b604051610c1e939250918252602082015260400190565b60405180910390a1600101610a5c565b50505050505050565b6001805461051d90611d63565b335f8181526005602090815260408083206001600160a01b03871680855290835292819020805460ff191686151590811790915590519081529192917f17307eab39ab6107e8899845ad3d59bd9653f200f220920489ca2b5937696c31910160405180910390a35050565b604051630349ea7360e61b81525f906001600160a01b037f0000000000000000000000000000000000000000000000000000000000000000169063d27a9cc090610d03908e908e908e908e90600401611fb0565b606060405180830381865afa158015610d1e573d5f5f3e3d5ffd5b505050506040513d601f19601f82011682018060405250810190610d429190611ffa565b9050805f015160028888604051610d5a929190612059565b602060405180830381855afa158015610d75573d5f5f3e3d5ffd5b5050506040513d601f19601f82011682018060405250810190610d989190612068565b14610db65760405163ddf32b5160e01b815260040160405180910390fd5b610de287878686604051602001610dce92919061207f565b60405160208183030381529060405261135c565b610dff57604051631e8c175b60e31b815260040160405180910390fd5b610e1d8787610e0d8561142e565b604051602001610dce91906120c4565b610e3a5760405163c0ee95bb60e01b815260040160405180910390fd5b610e588787610e488861155b565b604051602001610dce91906120ff565b610e755760405163065f2c5360e11b815260040160405180910390fd5b600d5460601b6001600160601b03191615801590610eac5750600d5460408201516001600160601b031990811660609290921b1614155b15610eca5760405163832f97cb60e01b815260040160405180910390fd5b5f610ed5858561165d565b80516020808301919091205f89815260079092526040822092935091815b8154811015610f2e5783828281548110610f0f57610f0f611eed565b905f5260205f20015403610f265760019250610f2e565b600101610ef3565b5081610f4d57604051630b92457b60e01b815260040160405180910390fd5b5f8985604051602001610f61929190612120565b60408051601f1981840301815291815281516020928301205f818152600990935291205490915060ff1615610fa957604051630c8d9eab60e31b815260040160405180910390fd5b5f818152600960209081526040808320805460ff19166001179055600a82528083208d9055600b90915290208190610fe18782612131565b50610fec88826117d5565b60068054905f610ffb83611dc4565b9190505550876001600160a01b03167f32292ea50ba6f9bc40bdeb79c7ceaa7a3853c92ee5658329160f6e6f200ee1f88c8c8c8560405161103f94939291906121eb565b60405180910390a25050505050505050505050505050505050565b61106585858561068f565b5050505050565b5f818152600260205260409020546060906001600160a01b03166110a357604051634e46966960e11b815260040160405180910390fd5b5f828152600c6020526040812080546110bb90611d63565b80601f01602080910402602001604051908101604052809291908181526020018280546110e790611d63565b80156111325780601f1061110957610100808354040283529160200191611132565b820191905f5260205f20905b81548152906001019060200180831161111557829003601f168201915b505050505090505f815111156111de575f838152600c60205260409020805461115a90611d63565b80601f016020809104026020016040519081016040528092919081815260200182805461118690611d63565b80156111d15780601f106111a8576101008083540402835291602001916111d1565b820191905f5260205f20905b8154815290600101906020018083116111b457829003601f168201915b5050505050915050919050565b5f838152600a60209081526040808320548084526008909252909120805461120590611d63565b80601f016020809104026020016040519081016040528092919081815260200182805461123190611d63565b801561127c5780601f106112535761010080835404028352916020019161127c565b820191905f5260205f20905b81548152906001019060200180831161125f57829003601f168201915b505050505092505050919050565b6060815f5b815181101561135557604160f81b8282815181106112af576112af611eed565b01602001516001600160f81b031916108015906112f05750605a60f81b8282815181106112de576112de611eed565b01602001516001600160f81b03191611155b1561134d5781818151811061130757611307611eed565b602001015160f81c60f81b60f81c60206113219190612215565b60f81b82828151811061133657611336611eed565b60200101906001600160f81b03191690815f1a9053505b60010161128f565b5092915050565b80515f9083101561136e57505f611427565b81515f9061137c908561222e565b611387906001612241565b90505f5b818110156114215760015f5b8551811015611405578581815181106113b2576113b2611eed565b01602001516001600160f81b03191688886113cd8487612241565b8181106113dc576113dc611eed565b9050013560f81c60f81b6001600160f81b031916146113fd575f9150611405565b600101611397565b5080156114185760019350505050611427565b5060010161138b565b505f9150505b9392505050565b604080518082018252601081526f181899199a1a9b1b9c1cb0b131b232b360811b60208201528151602a80825260608281019094525f9190602082018180368337019050509050600360fc1b815f8151811061148c5761148c611eed565b60200101906001600160f81b03191690815f1a905350600f60fb1b816001815181106114ba576114ba611eed565b60200101906001600160f81b03191690815f1a9053508360295b6001811115611551578382600f166001600160a01b0316815181106114fb576114fb611eed565b602001015160f81c60f81b83828151811061151857611518611eed565b60200101906001600160f81b03191690815f1a9053506004826001600160a01b0316901c9150808061154990611daf565b9150506114d4565b5090949350505050565b6060815f036115815750506040805180820190915260018152600360fc1b602082015290565b815f5b81156115aa578061159481611dc4565b91506115a39050600a83612268565b9150611584565b5f816001600160401b038111156115c3576115c3611ddc565b6040519080825280601f01601f1916602001820160405280156115ed576020820181803683370190505b5090505b841561165557611602600a8661227b565b61160d906030612241565b60f81b8161161a84611daf565b9350838151811061162d5761162d611eed565b60200101906001600160f81b03191690815f1a90535061164e600a86612268565b94506115f1565b949350505050565b60605f83838080601f0160208091040260200160405190810160405280939291908181526020018383808284375f920182905250845194955093925050506001600160401b038111156116b2576116b2611ddc565b6040519080825280601f01601f1916602001820160405280156116dc576020820181803683370190505b5090505f5b82518110156117cc57604160f81b83828151811061170157611701611eed565b01602001516001600160f81b031916108015906117425750605a60f81b83828151811061173057611730611eed565b01602001516001600160f81b03191611155b61176c5782818151811061175857611758611eed565b01602001516001600160f81b03191661179c565b82818151811061177e5761177e611eed565b602001015160f81c60f81b60f81c60206117989190612215565b60f81b5b8282815181106117ae576117ae611eed565b60200101906001600160f81b03191690815f1a9053506001016116e1565b50949350505050565b6001600160a01b0382166117fc57604051634e46966960e11b815260040160405180910390fd5b5f81815260026020908152604080832080546001600160a01b0319166001600160a01b03871690811790915583526003909152812080549161183d83611dc4565b909155505060405181906001600160a01b038416905f907fddf252ad1be2c89b69c2b068fc378daa952ba7f163c4a11628f55a4df523b3ef908290a45050565b5080545f8255905f5260205f2090810190611898919061189b565b50565b5b808211156118af575f815560010161189c565b5090565b5f602082840312156118c3575f5ffd5b81356001600160e01b031981168114611427575f5ffd5b6001600160601b031981168114611898575f5ffd5b5f602082840312156118ff575f5ffd5b8135611427816118da565b602081525f82518060208401528060208501604085015e5f604082850101526040601f19601f83011684010191505092915050565b5f6020828403121561194f575f5ffd5b5035919050565b80356001600160a01b038116811461196c575f5ffd5b919050565b5f5f60408385031215611982575f5ffd5b61198b83611956565b946020939093013593505050565b5f5f5f606084860312156119ab575f5ffd5b6119b484611956565b92506119c260208501611956565b929592945050506040919091013590565b5f5f83601f8401126119e3575f5ffd5b5081356001600160401b038111156119f9575f5ffd5b602083019150836020828501011115611a10575f5ffd5b9250929050565b5f5f5f60408486031215611a29575f5ffd5b8335925060208401356001600160401b03811115611a45575f5ffd5b611a51868287016119d3565b9497909650939450505050565b5f5f83601f840112611a6e575f5ffd5b5081356001600160401b03811115611a84575f5ffd5b6020830191508360208260051b8501011115611a10575f5ffd5b5f5f5f5f5f60608688031215611ab2575f5ffd5b8535945060208601356001600160401b03811115611ace575f5ffd5b611ada88828901611a5e565b90955093505060408601356001600160401b03811115611af8575f5ffd5b611b04888289016119d3565b969995985093965092949392505050565b5f5f5f5f5f5f60608789031215611b2a575f5ffd5b86356001600160401b03811115611b3f575f5ffd5b611b4b89828a01611a5e565b90975095505060208701356001600160401b03811115611b69575f5ffd5b611b7589828a01611a5e565b90955093505060408701356001600160401b03811115611b93575f5ffd5b611b9f89828a01611a5e565b979a9699509497509295939492505050565b5f60208284031215611bc1575f5ffd5b61142782611956565b5f5f60408385031215611bdb575f5ffd5b611be483611956565b915060208301358015158114611bf8575f5ffd5b809150509250929050565b5f5f5f5f5f5f5f5f5f5f60c08b8d031215611c1c575f5ffd5b8a356001600160401b03811115611c31575f5ffd5b611c3d8d828e016119d3565b909b5099505060208b01356001600160401b03811115611c5b575f5ffd5b611c678d828e01611a5e565b90995097505060408b01356001600160401b03811115611c85575f5ffd5b611c918d828e016119d3565b90975095505060608b0135935060808b01356001600160401b03811115611cb6575f5ffd5b611cc28d828e016119d3565b9094509250611cd5905060a08c01611956565b90509295989b9194979a5092959850565b5f5f5f5f5f60808688031215611cfa575f5ffd5b611d0386611956565b9450611d1160208701611956565b93506040860135925060608601356001600160401b03811115611af8575f5ffd5b5f5f60408385031215611d43575f5ffd5b611d4c83611956565b9150611d5a60208401611956565b90509250929050565b600181811c90821680611d7757607f821691505b602082108103611d9557634e487b7160e01b5f52602260045260245ffd5b50919050565b634e487b7160e01b5f52601160045260245ffd5b5f81611dbd57611dbd611d9b565b505f190190565b5f60018201611dd557611dd5611d9b565b5060010190565b634e487b7160e01b5f52604160045260245ffd5b601f8211156109f457805f5260205f20601f840160051c81016020851015611e155750805b601f840160051c820191505b81811015611065575f8155600101611e21565b6001600160401b03831115611e4b57611e4b611ddc565b611e5f83611e598354611d63565b83611df0565b5f601f841160018114611e90575f8515611e795750838201355b5f19600387901b1c1916600186901b178355611065565b5f83815260208120601f198716915b82811015611ebf5786850135825560209485019460019092019101611e9f565b5086821015611edb575f1960f88860031b161c19848701351681555b505060018560011b0183555050505050565b634e487b7160e01b5f52603260045260245ffd5b5f5f8335601e19843603018112611f16575f5ffd5b8301803591506001600160401b03821115611f2f575f5ffd5b602001915036819003821315611a10575f5ffd5b5f5f8335601e19843603018112611f58575f5ffd5b8301803591506001600160401b03821115611f71575f5ffd5b6020019150600581901b3603821315611a10575f5ffd5b81835281816020850137505f828201602090810191909152601f909101601f19169091010190565b604081525f611fc3604083018688611f88565b82810360208401528381526001600160fb1b03841115611fe1575f5ffd5b8360051b80866020840137016020019695505050505050565b5f606082840312801561200b575f5ffd5b50604051606081016001600160401b038111828210171561202e5761202e611ddc565b6040908152835182526020808501519083015283015161204d816118da565b60408201529392505050565b818382375f9101908152919050565b5f60208284031215612078575f5ffd5b5051919050565b691132b6b0b4b6111d101160b11b81528183600a830137601160f91b9101600a810191909152600b01919050565b5f81518060208401855e5f93019283525090919050565b75113932b1b4b834b2b73a2fb0b2323932b9b9911d101160511b81525f6120ee60168301846120ad565b601160f91b81526001019392505050565b6c113830b832b92fb4b2111d101160991b81525f6120ee600d8301846120ad565b8281525f61165560208301846120ad565b81516001600160401b0381111561214a5761214a611ddc565b61215e816121588454611d63565b84611df0565b6020601f821160018114612190575f83156121795750848201515b5f19600385901b1c1916600184901b178455611065565b5f84815260208120601f198516915b828110156121bf578785015182556020948501946001909201910161219f565b50848210156121dc57868401515f19600387901b60f8161c191681555b50505050600190811b01905550565b848152606060208201525f612204606083018587611f88565b905082604083015295945050505050565b60ff81811683821601908111156104a6576104a6611d9b565b818103818111156104a6576104a6611d9b565b808201808211156104a6576104a6611d9b565b634e487b7160e01b5f52601260045260245ffd5b5f8261227657612276612254565b500490565b5f8261228957612289612254565b50069056fea26469706673582212207c457a66367b4f2cef644d338ae82a9154e8b37f0c1e671eb8308bf87805777364736f6c634300081e0033","linkReferences":{}},"methodIdentifiers":{"approve(address,uint256)":"095ea7b3","balanceOf(address)":"70a08231","claim(bytes,bytes32[],bytes,uint256,string,address)":"a9058db8","claimed(bytes32)":"cc3c0f06","getApproved(uint256)":"081812fc","isApprovedForAll(address,address)":"e985e9c5","name()":"06fdde03","owner()":"8da5cb5b","ownerOf(uint256)":"6352211e","paperMetadataURI(uint256)":"12764214","registerPaper(uint256,string[],string)":"4006f5de","registerPapers(uint256[],string[][],string[])":"570b01ef","requiredCommitSha()":"ba558e54","safeTransferFrom(address,address,uint256)":"42842e0e","safeTransferFrom(address,address,uint256,bytes)":"b88d4fde","setApprovalForAll(address,bool)":"a22cb465","setRequirements(bytes20)":"0408d76a","setTokenMetadataURI(uint256,string)":"2c46e691","supportsInterface(bytes4)":"01ffc9a7","symbol()":"95d89b41","tokenEmail(uint256)":"4609e7c7","tokenMetadataURI(uint256)":"157c3df9","tokenPaperId(uint256)":"bfd64632","tokenURI(uint256)":"c87b56dd","totalSupply()":"18160ddd","transferFrom(address,address,uint256)":"23b872dd","verifier()":"2b7ac3f3"},"id":1}